:100000000C9434030C9451030C9451030C9451033D
:100010000C9451030C9451030C9451030C94510310
:100020000C9451030C9451030C9418250C94EA255C
:100030000C942E200C9451030C9451030C945103F6
:100040000C9451030C9451030C9451030C945103E0
:100050000C9451030C9487200C9451030C9451037D
:100060000C9451030C9451030C9451030C945103C0
:100070000C9451030C9451030C9451030C945103B0
:100080000C9451030C9451030C9451030C945103A0
:100090000C9451030C9451030C9451030C94510390
:1000A0000C9451030C9451030C945103AD03B00311
:1000B000B303B603B903BC03BF036F096F09A109FA
:1000C000A109EA090C0A250B890B170AB20AC40A0E
:1000D000C40A310B540B390B3C0B470B410B4C0B37
:1000E000480C480C5A0C5A0C510C5A0C5A0C5A0C0D
:1000F000480C480C560C5A0C5A0C560CB617AC1738
:10010000B917011805180518011805180518DA1788
:100110000518E417EE170518051805180518011835
:100120000518051801180518C71705180518FE1732
:10013000FE17FE17FE17FE17FE17FE17FE17FE1717
:1001400003180518B617A917051805180518051876
:1001500005180518051805180518051803180518B9
:10016000051801180518FC17FC17FC17FC17FC17DD
:10017000FC17FC17FC17FC17031857267E2676275A
:100180007E267627CA26ED26762744275327000D9C
:10019000010D020D030D040D050D000C010C020CE8
:1001A000030C040C050C000B010B020B030B040BDE
:1001B000050B000A010A020A030A040A050A0009DB
:1001C00001090209030904090509000801080208D8
:1001D00003080408050800070107020703070407CE
:1001E00005070006010602060306040605060005CB
:1001F00001050205030504050505000401040204C8
:1002000003040404050400030103020303030403BD
:1002100005030002010202020302040205020001BA
:1002200001010201030104010501000001000200B7
:1002300003000400050029002B00E000E100E300BA
:1002400000001E00140004001D00E2004D001F000D
:100250001A0016001B0035004C00200008000700A3
:10026000060031002A0021001500090019002900AC
:100270004A00220017000A00050000003A002E0084
:1002800000070000E0000000A80001532F0000005C
:1002900002510000AA0023001C000B001100000006
:1002A000A900240018000D00100050004B0025008C
:1002B0000C000E00360051002C00260012000F002A
:1002C00037005200280027001300330038004F0089
:1002D0004E002D0030003400E500E0000000290051
:1002E0002B00E300E100E00000001E001400040009
:1002F0001D00E2004D001F001A0016001B00350013
:100300004C00200008000700060031002A002100F0
:1003100015000900190029004A00220017000A00F0
:10032000050000003A002E0000070000E000000079
:10033000A80001002F00000002510000AA002300C5
:100340001C000B0011000000A900240018000D0083
:10035000100050004B0025000C000E00360051002C
:100360002C00260012000F00370052002800270042
:100370001300330038004F004E002D0030003400D1
:10038000E500E000000000000000000000000000A8
:1003900000003A00000000000000000000003B00E8
:1003A000000000000000000000003C000000000011
:1003B0000000000000003D00000000000000000000
:1003C00000003E00000000000000000000004400AB
:1003D00000000000000000000000450000000000D8
:1003E0000100000000003F000000000000000000CD
:1003F000000040000000000000000000000041007C
:1004000000000000000000000000420000000000AA
:100410000000000000004300000000000000000099
:1004200000000000000000000000000000000000CC
:100430000000000000002A2B28000000000000003F
:1004400000000000000000000029000000002C1E39
:100450003420212224342627252E362D3738271EF6
:100460001F202122232425263333362E37381F041C
:1004700005060708090A0B0C0D0E0F1011121314B4
:1004800015161718191A1B1C1D2F3130232D350472
:1004900005060708090A0B0C0D0E0F101112131494
:1004A00015161718191A1B1C1D2F3130354C00005A
:1004B000000000000000000000000000000000003C
:1004C000000000000000000000000000000000002C
:1004D00000007E0F00D4FFFFFFC700000078160366
:1004E0004500720067006F0044006F007800200034
:1004F00045005A00000028035A0053004100200024
:1005000054006500630068006E006F006C006F00AF
:100510006700790020004C00610062007300000059
:100520000403090409023B00020100A0FA090400C7
:10053000000103010100092111010001224000070F
:1005400005810308000A09040100010300000009F5
:10055000211101000122B6000705820320000A12C2
:1005600001000200000008973274490100010200F6
:100570000105010902A10185020901A1000509196E
:100580000129081500250195087501810205010959
:100590003009311581257F950275088106093815C6
:1005A00081257F950175088106050C0A38021581A1
:1005B000257F950175088106C0C005010980A1014C
:1005C000850319012AB700150126B700950175109A
:1005D0008100C0050C0901A101850419012AA002AE
:1005E000150126A002950175108100C005010906BC
:1005F000A1018505050719E029E7150025019508E2
:10060000750181020507190029EF1500250195F0F4
:1006100075018102050819012905950575019102E9
:10062000950175039101C005010906A1010507198E
:10063000E029E715002501950875018102950175EE
:100640000881010507190029FF150026FF009506FE
:1006500075088100050819012905950575019102A4
:10066000950175039101C00011241FBECFEFDAE0A0
:10067000DEBFCDBF11E0A0E0B1E0E6E8F2E502C0E8
:1006800005900D92AE37B107D9F722E0AEE7B1E0A1
:1006900001C01D92AE3CB207E1F70E94FB160C941C
:1006A00041290C9400008098889A8198899A8498AE
:1006B0008C9A85988D9A86988E9A87988F9A0895A5
:1006C000209828982198299822982A9823982B983E
:1006D00052985A9853985B983E9846980895CF93AD
:1006E000E82F873080F58091060190910701892BD2
:1006F00009F047C0CE2F64E670E080E40E94DA1D66
:100700009093070180930601892BD1F464E670E091
:1007100082E10E945B1E9093070180930601892B62
:1007200079F481E090E001C0880FCA95EAF764E6A9
:1007300070E080950E945B1E9093070180930601F4
:10074000CF910C94B01E90E0FC013797E730F10593
:10075000C0F4EA5AFF4F0C94D227209A289811C06F
:10076000219A29980EC0229A2A980BC0239A2B9876
:1007700008C0529A5A9805C0539A5B9802C03E9A94
:100780004698CF910895CF93873040F58091060128
:1007900090910701892B59F564E670E081E40E948D
:1007A000DA1D9093070180930601892B11F0C0E0B8
:1007B00011C084E690E00E948B1E97FF05C09093C5
:1007C000070180930601F3CFC82FC095109207014F
:1007D000109206010E94B01E8C2F0AC09FB18FB1EB
:1007E000807F869586959370892B809501C080E0E7
:1007F000CF9108950E94F80490E0909307018093B0
:1008000006010E9460030C945303EF92FF920F9332
:100810001F93CF93DF938091060190910701892B5D
:1008200091F0809180018F5F8093800181110BC0D6
:100830000E94F80490E09093070180930601892BB1
:1008400011F40E946A0407E912E0C0E0F12C87E08D
:10085000E82EEC0E8C2F0E946F038E2D0E946F03EA
:100860008C2F0E94C303F8019081891719F08083AF
:10087000D1E001C0D0E08E2D0E94C303F801978122
:10088000891719F0878381E001C080E0D82BFD2A09
:100890000E946003CF5F0F5F1F4FC730C1F68F2DDF
:1008A000DF91CF911F910F91FF90EF9008950E94DB
:1008B000F80490E090930701809306010E94600382
:1008C0000E945303E5EAF2E0119282E0E33BF8076D
:1008D000D9F7089556985E9825982D9826982E98C1
:1008E00027982F988FEF90E090938900809388004D
:1008F00090938B0080938A0090938D0080938C005E
:10090000259A2D9A2FEF80E792E021508040904069
:10091000E1F700C00000269A2E9A2FEF80E792E0C0
:10092000215080409040E1F700C00000279A2F9AA4
:100930002FEF80E792E0215080409040E1F700C027
:10094000000025982D982FEF80E792E021508040FD
:100950009040E1F700C0000026982E982FEF80E726
:1009600092E0215080409040E1F700C000002798BD
:100970002F9856985E9825982D9826982E98279807
:100980002F98089589EA8093800089E08093810000
:1009900024982C983F988AB18F7C8AB96E98479A90
:1009A0008BB180638BB9769A0E94AD1260939102ED
:1009B00070939202809393029093940267708FEFEA
:1009C000689FB00111247595679575956795772790
:1009D000709389006093880070938B0060938A0005
:1009E00070938D0060938C000E946A040C943C16F6
:1009F00080E290E09093070180930601809181014D
:100A000081110EC00E94D41D81E0809381012FEFDF
:100A100083ED90E3215080409040E1F700C000005A
:100A200064E670E080E40E94DA1D909307018093F1
:100A30000601892B09F04EC064E670E080E00E9458
:100A40005B1E9093070180930601892B09F042C039
:100A500064E670E080E00E945B1E90930701809343
:100A60000601892BB9F564E670E08FE30E945B1EF6
:100A70009093070180930601892B61F50E94B01EB7
:100A800064E670E080E40E94DA1D90930701809391
:100A90000601892BF9F464E670E08CE00E945B1E8D
:100AA0009093070180930601892BA1F464E670E01E
:100AB00080E00E945B1E9093070180930601892BC2
:100AC00049F464E670E08FE30E945B1E9093070197
:100AD000809306010E94B01E809106010895109235
:100AE000910210929202109293021092940284E06A
:100AF0008061809391026091910270919202809145
:100B00009302909194020E94B1120C94BD129C0128
:100B10003A9521153F4130F5BC0166277270AC0152
:100B2000442754709C012227387094FF0FC090FF17
:100B300002C080E101C080E0672B09F08062452B94
:100B400009F08064232B79F080680895892F8170E3
:100B5000672B09F08260452B09F08460232B19F084
:100B60008860089580E00895CF93DF93EC01805E64
:100B70009109089710F0209731F4CE010E94870563
:100B80000E94220905C0CE010E9487050E940E0C1A
:100B90008C2FDF91CF910C94EB07CF93DF93EC0177
:100BA0000E949A08CE01805E9109089710F0209764
:100BB00039F4CE010E948705DF91CF910C94290969
:100BC000CE010E948705DF91CF910C94150CCF9335
:100BD000DF93EC010E94B405CE01DF91CF910C941C
:100BE000CD0581E0089581E008950C94F305089502
:100BF0000C94F7051F93CF93DF9300D000D01F9282
:100C0000CDB7DEB749835A836B83309190018981D8
:100C10009A81311114C0662359F0222349F00E94B1
:100C2000EE0D182F682F89819A810E94950D03C0BF
:100C30000E94C10D182F69817A81812F04C00E9402
:100C4000EE0D69817A810F900F900F900F900F90A9
:100C5000DF91CF911F910C941A15FC01262F408132
:100C600051816281738184810C94FA0581E0089539
:100C7000CF93DF93EC0160E00E942D06BE01DF916F
:100C8000CF910C94F8050E940C160E942D070E942B
:100C9000061B0C94C2040C943A1608950E94360C5C
:100CA0000E944D062FEF84E39CE02150804090404D
:100CB000E1F700C000000C94AD200F931F93CF9379
:100CC000DF938C0161E00E942D06EC01B8010E94C7
:100CD000F505882309F444C0B801CE010E948E1B9B
:100CE0008823F1F1B801CE010E941F1C8823C1F1B5
:100CF000B801CE010E94711C882391F1B801CE0188
:100D00000E94A31D882361F1F8018281882309F1E3
:100D1000CB358DE5D807C1F050F4C115FCE5DF07F0
:100D200081F0CF3DDC45A9F40E94211319C0CC35D8
:100D3000EDE5DE0761F0CD35DD4559F40E94B811CF
:100D400008C00E944E060CC00E94C11102C00E9441
:100D5000C411C801DF91CF911F910F910C94F1053F
:100D600080E0DF91CF911F910F910895DF92EF9274
:100D7000FF920F931F93CF93DF93E82FF0E0E25D94
:100D8000FB4FD490282F26952695269530E0F90123
:100D9000E253FB4F0491877010E0082E02C01595B6
:100DA00007950A94E2F701701127F901E254FB4F0D
:100DB000E490F12C082E02C0F594E7940A94E2F72F
:100DC00091E0E922FF24F901E255FB4FC491D0E004
:100DD00002C0D595C7958A95E2F7C170DD27011548
:100DE000110519F081EE0E94EB07E114F10419F0EE
:100DF00086EE0E94EB078D2D0E941909EF2819F04D
:100E000086EE0E949A08012B19F081EE0E949A0842
:100E1000CD2B51F08CE2DF91CF911F910F91FF907C
:100E2000EF90DF900C941909DF91CF911F910F91F2
:100E3000FF90EF90DF900895982F9F709A50963012
:100E400010F0805D01C0895A0C94B60608950C9488
:100E5000260781E008950C9429070895CF93C82FA1
:100E60000E9427078C2F0E942B07CF910895DC0149
:100E700011962C9111978C91482F50E061E070E011
:100E800001C0660F8A95EAF712968C91129730E0AE
:100E9000882319F08091920105C0F901EE57FE4FA9
:100EA000808186238823E1F086E0829FF001839F82
:100EB000F00D11244E0F5F1F440F551FFA01E1572B
:100EC000FE4FE4911196EC931197FA01E257FE4F11
:100ED000E491EC93F901EE57FE4F8081682B06C038
:100EE000F901EE57FE4F6095808168236083089575
:100EF000CF93DF93CDB7DEB72B970FB6F894DEBF55
:100F00000FBECDBF4F83588769877A878B87611162
:100F10000E94EA119F8188852A853B85232B31F029
:100F20008F3F31F481E09F3F19F403C081E001C09D
:100F300080E080FD04C0CE0107960E9437079E0125
:100F40002F5F3F4F86E0F90111928A95E9F785E01E
:100F5000FE013796D90101900D928A95E1F78981BA
:100F60009A814C815D81452B31F09F3F31F491E0B6
:100F70008F3F19F403C091E001C090E090FF09C0D9
:100F800049815A816B817C818D819E810E94BF1035
:100F900005C0C9010E9436068111F2CF2B960FB60B
:100FA000F894DEBF0FBECDBFDF91CF910895FC0155
:100FB000808191810E94300E92959F70963051F4FD
:100FC000863F41F08091920191E0892780939201C0
:100FD000909391010895CF93882309F4A9C0C82F55
:100FE0008238C1F40E94B91E81FDA2C069E38091DC
:100FF0000801909109010E94B21F0E940F122FEF69
:1010000081EE94E0215080409040E1F700C0000064
:1010100069E319C0833801F50E94B91E80FD88C0BC
:1010200063E580910801909109010E94B21F0E941E
:101030000F122FEF81EE94E0215080409040E1F7B5
:1010400000C0000063E580910801909109010E94B1
:10105000BD1FCF910C940F128438C1F40E94B91EA9
:1010600082FD66C067E480910801909109010E94A9
:10107000B21F0E940F122FEF81EE94E021508040AA
:101080009040E1F700C0000067E4DDCF8CEF8C0FEB
:10109000813AF8F48C2F0E940B18811149C06C2FF3
:1010A00080910801909109010E94321F882349F024
:1010B0006C2F80910801909109010E94BD1F0E9430
:1010C0000F126C2F80910801909109010E94B21FAC
:1010D000C0CF80E28C0F883048F4C77081E001C037
:1010E000880FCA95EAF70E94CA11B3CFEBE5EC0F5F
:1010F000E33040F4F0E0E75BFE4F808190E0CF9179
:101100000C94F01EE8E5EC0FE73150F4F0E0EE0F40
:10111000FF1FE55EFE4F80819181CF910C94061FE9
:10112000CD3E30F08C2F0E94E018CF910C94B21974
:10113000CF910895882309F464C0823879F40E941D
:10114000B91E81FF5EC069E3809108019091090199
:101150000E94B21F0E940F1269E310C08338B1F4DD
:101160000E94B91E80FF4DC063E5809108019091F7
:1011700009010E94B21F0E940F1263E580910801CD
:10118000909109010E94BD1F0C940F12843879F4CC
:101190000E94B91E82FF35C067E4809108019091DA
:1011A00009010E94B21F0E940F1267E4E7CF9CEF73
:1011B000980F913A10F4682FE1CF90E2980F983091
:1011C00050F4877091E001C0990F8A95EAF7892F52
:1011D0000E94D011D9CF9BE5980F933020F480E086
:1011E00090E00C94F01E98E5980F973120F480E081
:1011F00090E00C94061F8D3E20F00E943B190C9449
:10120000B21908951F93CF93DF93182FEB010E941B
:10121000EB07209741F08FE99FE00197F1F700C0BD
:1012200000002197F6CF812FDF91CF911F910C9471
:101230009A08893319F060E070E002C060E570E060
:101240000C940209882321F00E94CA110C940F12F9
:101250000895882321F00E94D0110C940F12089554
:101260008F929F92AF92BF92CF92DF92EF92FF92B6
:101270000F931F93CF93DF936C01C62F172FFC01A1
:10128000D281058102950F700E949F118823B9F0C9
:10129000DD23A9F0812F807F803441F090E29C0F04
:1012A000983068F0803611F4C63F49F082E00E9421
:1012B0005F120E949F1191E0E82EE92601C0E12C07
:1012C000B12EB2949FE0B9228B2D90E08C30910525
:1012D00008F01FC2FC01E35AFF4F0C94D227012FE4
:1012E0000F70812F807F11F00295007FDD2399F030
:1012F000002309F495C180E28C0F883010F0C111F1
:1013000004C0802F0E94CA1103C0802F0E94DD11EB
:101310000E940F1285C18C2F0E949A08002309F4A5
:10132000F8C180E28C0F883010F0C11104C0802F0A
:101330000E94D01103C0802F0E94E3110E940F125F
:10134000E8C1912F9F70812F807FF92E803219F094
:10135000F29480EFF822CC2319F0C130C9F024C0F8
:10136000DD2371F0002341F0013031F40E94F011CF
:101370008F290E94F811CDC10E94F0118F290EC053
:10138000002319F0013009F4C4C10E9405121EC0E7
:10139000DD2339F0023008F0BCC18F2D0E942209F4
:1013A000B8C10111B6C112C0DD2319F00023A9F3A1
:1013B00037C1002359F0C93309F043C1FFEF27EECD
:1013C00083E0F15020408040E1F739C18F2D0E9429
:1013D00029099FC1812F86958695837019F08130E8
:1013E00071F097C1DD2331F08C2F912F93700E9403
:1013F000F01E97C180E090E00E94F01E9BC1DD23AB
:1014000031F08C2F912F93700E94061F8AC180E0CB
:1014100090E00E94061F8EC18C2FDD2319F00E94E0
:10142000E01802C00E943B190E94B2197AC1812FB4
:10143000837009F048C0D11170C12C2F22952695D8
:101440002770220F220F6C2F6F70862F90E0A0E084
:10145000B0E0022E04C0880F991FAA1FBB1F0A9478
:10146000D2F7C4FF10C04FE050E060E070E004C06D
:10147000440F551F661F771F2A95D2F74095509548
:101480006095709503C040E050E0BA01212F269589
:10149000269523704A015B01882A992AAA2ABB2A29
:1014A000C501B401223049F058F4213019F00E94EE
:1014B000AB0C33C10E94990C30C10E94BD0C2DC1F0
:1014C0000E94970C2AC1DD2319F0812F817001C081
:1014D0008695882309F421C12C2F22952695277003
:1014E000220F220F6C2F6F70862F90E0A0E0B0E0EB
:1014F000022E04C0880F991FAA1FBB1F0A94D2F79F
:10150000C4FF10C04FE050E060E070E004C0440F42
:10151000551F661F771F2A95D2F740955095609505
:10152000709503C040E050E0BA01212F2695269522
:1015300023704A015B01882A992AAA2ABB2AC5017D
:10154000B401223049F058F4213019F00E94700D96
:10155000E4C00E945E0DE1C00E94820DDEC00E94C8
:10156000D10CDBC0012F0F70DD2339F0802F0E94DA
:10157000F70C8C2F0E942209D0C08C2F0E942909C1
:10158000802F0E94180DC9C0C23FF9F028F4C03F57
:1015900041F0C13F99F040C0C33FF1F0C43F31F189
:1015A0003BC0DD2339F00111B4C0812F8F710E943F
:1015B0003D0DAFC0023008F0ACC0F7CFDD2339F0ED
:1015C000812F8F710E94F70CA4C0DD23C9F3812FF6
:1015D0008F710E94180D9DC0DD2329F0812F8F711E
:1015E0000E94E20C96C00E94DD0C93C0DD2351F0F6
:1015F000012F0F71802F0E94F70C63E0802F0E9453
:10160000441287C081E00E945F12023008F481C05A
:1016100082E00E945F127DC0DD2331F0002381F261
:101620008C2F0E94EB0775C0002389F2C93349F45F
:101630002FEF87EE93E0215080409040E1F700C00B
:1016400000008C2F0E949A0864C08C2F90E0FC014F
:10165000E05FF109E730F10598F5E759FF4F0C9489
:10166000D227DD2309F466C09091920181E0892799
:1016700005C0D093920155C081E08D2780939201DF
:1016800050C0D1114EC081E08093920153C0D1115E
:1016900048C0109292014EC0DD2319F00E947711CC
:1016A00040C00E94831146C0DD2339F08091910132
:1016B0008823D1F21092910134C00023A9F23AC0DC
:1016C000809191010023C1F0882341F09091920113
:1016D00081E0892780939201109291018C2FDD2364
:1016E00019F00E94EB071DC00E949A0886E0F601DF
:1016F00011928A95E9F71EC0882399F0D11111C083
:101700009091920181E0892780939201109291013A
:1017100011C088EF8B0D843020F40E94B91E0E9406
:101720002E07DD2339F0107F103611F4C63F11F07B
:101730000E949111EE20E9F00E94731180FD19C002
:10174000F60112820E946D110E94F70CC6010E94E0
:10175000DE0B0E946D11DF91CF911F910F91FF90D1
:10176000EF90DF90CF90BF90AF909F908F900C94B0
:10177000180DDF91CF911F910F91FF90EF90DF90A7
:10178000CF90BF90AF909F908F9008950F931F932D
:10179000CF93DF93EC01688179818A810E943B0EAF
:1017A0008C010E94940D0E94850CB801CE010E940C
:1017B0003009DF91CF911F910F910895CF93DF935F
:1017C000EC01988189812B813C81232B31F08F3F63
:1017D00031F481E09F3F19F403C081E001C080E053
:1017E00080FD19C0CE010E945D0681110CC00E94CF
:1017F0009F11882381F08A81882369F082E0DF913C
:10180000CF910C945F12CE010E94C60BCE01DF91E6
:10181000CF910C943806DF91CF910895882321F061
:101820000E94DD110C940F120895882321F00E946C
:10183000E3110C940F12089580E090E00E94F01ED6
:1018400080E090E00E94061F0E94EA110E94ED11C4
:101850000E940F120E94E31A0C94B21980910801A1
:10186000909109010E94C81F0C941C0C0E94DA116F
:101870000C942E0CE92FE295EF704E2F50E0FA01F8
:101880003297EE30F105B0F4E059FF4F0C94D227B7
:10189000803F91F018F4883E68F40EC0843F51F404
:1018A0000BC0883E48F0813F29F406C093FB88278F
:1018B00080F9089580E0089581E00895FC01808119
:1018C00091810E94300E0E943A0C0895CF93DF93CD
:1018D00000D000D01F92CDB7DEB70F900F900F90C1
:1018E0000F900F90DF91CF910895CF93DF9300D0A9
:1018F00000D000D0CDB7DEB726960FB6F894DEBF85
:101900000FBECDBFDF91CF910895089508950C9437
:10191000860C0C94870C0E94890C6093CE01709306
:10192000CF018093D0019093D1010C941C0C0C94A6
:101930008B0C0F931F930091CE011091CF0120913A
:10194000D0013091D101602B712B822B932B1F91F1
:101950000F910C948B0C0F931F930091CE0110915B
:10196000CF012091D0013091D101602371238223D6
:1019700093231F910F910C948B0C0F931F93009145
:10198000CE011091CF012091D0013091D10160277B
:101990007127822793271F910F910C948B0C0C9425
:1019A000860C0E94CF0C6093CA017093CB01809388
:1019B000CC019093CD010C941C0C60E070E0CB0145
:1019C0000C94D10C0F931F9341E050E060E070E065
:1019D0008A019B0104C0000F111F221F331F8A952B
:1019E000D2F7C901B8011F910F910C94D10C0F933C
:1019F0001F9341E050E060E070E004C0440F551FC9
:101A0000661F771F8A95D2F78091CA019091CB010A
:101A1000A091CC01B091CD018A019B01082B192B1B
:101A20002A2B3B2BC901B8011F910F910C94D10CAB
:101A30000F931F9341E050E060E070E004C0440F5A
:101A4000551F661F771F8A95D2F740955095609570
:101A500070958091CA019091CB01A091CC01B09179
:101A6000CD018A019B01082319232A233B23C901A5
:101A7000B8011F910F910C94D10C0F931F9341E06B
:101A800050E060E070E004C0440F551F661F771FF0
:101A90008A95D2F78091CA019091CB01A091CC0197
:101AA000B091CD018A019B01082719272A273B27DE
:101AB000C901B8011F910F910C94D10C0F931F9382
:101AC0000091CA011091CB012091CC013091CD0140
:101AD000602B712B822B932B1F910F910C94D10CA7
:101AE0000F931F930091CA011091CB012091CC015B
:101AF0003091CD0160237123822393231F910F9195
:101B00000C94D10C0F931F930091CA011091CB013B
:101B10002091CC013091CD01602771278227932736
:101B20001F910F910C94D10C0895292F220F920F21
:101B3000990F890FE82FE695E695E695877051E0B5
:101B400001C0550F8A95EAF785E0E89FF00111245E
:101B5000ED56FE4F20E030E070E04081CB01022ED8
:101B600002C0969587950A94E2F781708195842743
:101B70008523842781932F5F3F4F2530310569F7F7
:101B80000895292F220F920F990F890F682F6695BC
:101B900066956695982F977085E0689FB00111242F
:101BA00040E050E080E0FB01E40FF51FED56FE4FF2
:101BB000208130E0092E02C0369527950A94E2F77D
:101BC00021703327042E01C0220F0A94EAF7822BDA
:101BD0004F5F5F4F4530510531F70895BF92CF9267
:101BE000DF92EF92FF920F931F93CF93DF938C01BD
:101BF000C090CA01D090CB01E090CC01F090CD0113
:101C00008091CE019091CF01A091D001B091D101EE
:101C1000C82AD92AEA2AFB2ACFE1D0E0D701C60197
:101C20000C2E04C0B695A795979587950A94D2F780
:101C300080FD04C0219790F7B12C07C0BC2EB801DD
:101C40008C2F0E942D150197A9F38B2DDF91CF9139
:101C50001F910F91FF90EF90DF90CF90BF9008956C
:101C6000CF93DF93EC010E94EE0DBE010E942D1573
:101C7000DF91CF9108951F93CF93DF93EB01909164
:101C80009001992321F0CB010E94300E13C08823CC
:101C900049F0CB010E94EE0D182F682FCE010E9453
:101CA000950D04C0CB010E94C10D182FBE01812FDC
:101CB0000E942D15DF91CF911F9108951F93CF930F
:101CC000DF93C091D20116E08091D301C81799F03B
:101CD000D0E01C9FF0011D9FF00D1124EC52FE4F2F
:101CE0004081518162817381848195810E94750C4C
:101CF0002196C770E9CFDF91CF911F910895409150
:101D000004025091050260910602709107028091D1
:101D10000802909109020C94750C0F931F93CF93B6
:101D2000DF938091090282958F7009F05DC08091E8
:101D30000602882309F458C08091D2011091D30182
:101D40006091040270910502C0910702D0910802CF
:101D500091E06F3F09F090E0292F06E0811709F428
:101D600043C0209721F07F3F21F030E003C031E0F5
:101D700001C0322F90E030FD34C0089FF001099F70
:101D8000F00D1124DF01AC52BE4F11963C9111971A
:101D9000371327C03C91361324C012963C911297FA
:101DA00031111FC013964D915C9114974C1B5D0B24
:101DB000483C5105B0F4809109028F708061809396
:101DC0000902E752FE4F80818F708061808384E03A
:101DD00092E00E94DE0BDF91CF911F910F910C9446
:101DE0005E0E01968770BACFDF91CF911F910F9150
:101DF00008959F92AF92BF92CF92DF92EF92FF929F
:101E00000F931F93CF93DF93CDB7DEB761970FB6D4
:101E1000F894DEBF0FBECDBF8C0185E0F801DE0176
:101E20001D9601900D928A95E1F7F801E28090915C
:101E300004026091050220910702309108022115E9
:101E4000310531F06F3F31F481E09F3F19F403C059
:101E500081E001C080E0F82FF1709F2E80FD3FC12E
:101E6000F80140815181A380B48084E0C82E82E0D3
:101E7000D82EF0900602F501E21BF30BFF2009F4C7
:101E8000D9C080910902E83CF10508F095C0282FDF
:101E9000207F09F052C0561313C0491311C0FE2C05
:101EA000E1100EC08F708061809309020E947F0E46
:101EB000C6010E94DE0B80910902F80185834CC1A6
:101EC000AB2831F05F3F31F481E04F3F19F403C09C
:101ED00081E001C080E080FD03C081E08E2502C06A
:101EE00080E090E0F82FF170FF2E80FF1CC0809101
:101EF000D2012091D30136E0821709F40BC190E0A2
:101F0000389FF001399FF00D1124EC52FE4F618192
:101F1000561306C06081461303C06281E61203C0F7
:101F200001968770E9CFFE2CEE2009F415C180914F
:101F3000090281608093090254C0561306C04913F8
:101F400004C0E11002C0F80199C0C8010E945E0CF3
:101F5000882361F1EE2051F120910902822F8295B0
:101F60008F7090E0029774F08091040290910502C6
:101F700098878F831986BB86AA862C87CE01079601
:101F80000E94DE0B86E0F801A4E0B2E001900D9221
:101F90008A95E1F70E948D0E0E947F0E0AC05617A7
:101FA00011F1C8010E945E0C81112CC0C8010E9471
:101FB000DE0BFF24F394D0C0282F207F81F77A2DE9
:101FC000B98AA88A6E2D89890E94660C84E092E005
:101FD0000E94DE0B86E0F60111928A95E9F70E94D5
:101FE0007F0EF12CB9C04913DCCFE110DACFF80134
:101FF0008583C8010E94DE0B86E0F60111928A9566
:10200000E9F7AAC0EE2091F220910902822F829571
:102010008F7090E002970CF4B5CF809104029091FC
:1020200005029A8389831B82BD82AC822E83CE01F6
:102030000196A6CFE83CF10508F044C0FE2CEE2046
:1020400009F4B4CF561330C049132EC020910902B1
:1020500020FD21C0822F82958F70482F50E04115BE
:102060005105C9F0F80125834F30510541F08F5FCC
:10207000982F9295907F822F8F70892B8583C8012E
:102080000E94DE0B86E0F801A4E0B2E001900D9220
:102090008A95E1F73CC086E0F801A4E0B2E0019047
:1020A0000D928A95E1F758C0C8010E945E0C81111B
:1020B00069CF80910902816080930902C8010E9462
:1020C000DE0B4AC07A2DB98AA88A6E2D89890E94B2
:1020D000660C86E0F60111928A95E9F718C0EE20A9
:1020E00009F464CFC8010E945E0CF82E882309F41D
:1020F0005DCF86E0F801A4E0B2E001900D928A95F0
:10210000E1F784E092E00E94D7070E948D0E0E94C2
:102110007F0E22C04D875E878D859E850E94300E82
:10212000292F22952F70223028F49F7039F08111C9
:1021300005C00BC0243028F49F7049F4805E8830BD
:1021400020F0C8010E94DE0B9F2CF92C05C0F8017D
:102150009581907F99F7F9CF8F2D61960FB6F894FE
:10216000DEBF0FBECDBFDF91CF911F910F91FF90CA
:10217000EF90DF90CF90BF90AF909F9008951F9306
:10218000CF93DF93CDB7DEB72C970FB6F894DEBFB1
:102190000FBECDBF4F83588769877A878B879C870F
:1021A000CE0107960E94F90E8823D1F09F81888581
:1021B0002A853B85232B31F08F3F31F481E09F3F0F
:1021C00019F403C081E001C080E080FD47C04F8169
:1021D000588569857A858B859C850E94750C3EC0E3
:1021E00086E0FE013796DE01119601900D928A95E8
:1021F000E1F7FF81E8856A857B856115710531F01E
:10220000EF3F31F481E0FF3F19F403C081E001C0EA
:1022100080E080FD23C02091D30130E0C901019608
:10222000877099274091D20150E084179507F1F10A
:10223000F983EA837D836C8396E0929FD001939F1C
:10224000B00D1124AC52BE4FFE01319601900D929B
:102250009A95E1F78093D3010E945E0E16E080917B
:10226000D2019091D301891771F1189FC0011124F7
:102270008C529E4F0E94F90E882329F1E091D201E1
:102280001E9FF0011124EC52FE4F4081518162816A
:102290007381848195810E94750C8091D20190E0B8
:1022A0000196877099278093D201D9CF0E94360C6E
:1022B0001092D3011092D201E4E0F2E086E0DF0157
:1022C0001D928A95E9F72C960FB6F894DEBF0FBEE3
:1022D000CDBFDF91CF911F91089580910B0285951D
:1022E00085958595089580910B028770089582E009
:1022F00080930A0281E080939201089510920A026D
:1023000010929201089580910A02823019F481E0BE
:1023100080930A0280910A02833011F40C947E119A
:10232000089580910A02823019F483E080930A02B2
:1023300080910A02813011F40C947E1108959091DD
:102340000B02977081E009F480E008959091960265
:1023500092FB222720F9281751F080FB92F99093E5
:10236000960280919502909196020C94A012089585
:102370008091960282FB882780F991E089270C944E
:10238000A61181E00C94A61180E00C94A611809116
:102390002F02089590912F02892B80932F02089588
:1023A000809590912F02892380932F020895809326
:1023B0002F02089510922F02089590912E02892BDA
:1023C00080932E020895809590912E028923809308
:1023D0002E02089510922E02089510922D02089553
:1023E00080910C02089508950C94F3110C94F4114B
:1023F0009091960292FD08C090910C02981721F0DE
:1024000080930C020C94F611089580910C0288239D
:1024100029F010920C0280E00C94F6110895E091DE
:102420000801F091090180912F028083E091080159
:10243000F0910901908180912E02892B8083E09197
:102440000801F0910901908180912D02892B8083F0
:1024500080910C02882381F0E0910801F09109013C
:102460009081892B808380910801909109010E94BD
:102470001C1F81110E940512809108019091090191
:102480000C94C81E0C94F3119091960292FD10C00A
:1024900098E0899F90011124262B20930B020E9423
:1024A000F70C80910B028595859585950C944212C9
:1024B0000C94F70C10920B0280E00C9442122091C5
:1024C0000B028095822380930B02982F977041F422
:1024D00030E0482F082E000C550B2417350721F447
:1024E0009091960292FF07C08595859585950E94EB
:1024F000180D0C945A12089580E090E00E9407296C
:1025000021E0893E9E4F09F020E0822F089582E06D
:1025100090E00C94F92883E090E00C94F928CF9394
:1025200084E090E00E94F928C82F82E290E00E94A7
:10253000F9282C2F30E0A901582BCA01CF9108951A
:10254000CF93C92F682F84E090E00E940D296C2F53
:1025500082E290E0CF910C940D298FE090E00C94F2
:102560000129AB01BC018FE090E00C941F29AB0165
:10257000BC0183E190E00C941F2960E070E0CB0186
:102580000C94B71269EE7EEF80E090E00E942B2958
:1025900060E082E090E00E940D2960E083E090E03E
:1025A0000E940D291092CE011092CF011092D001FD
:1025B0001092D10160E084E090E00E940D2960E07B
:1025C00082E290E00E940D2960E085E090E00E94A8
:1025D0000D2960E086E090E00E940D296FEF87E012
:1025E00090E00E940D2940E050E0BA0188E090E0C0
:1025F0000E941F2960E08DE090E00E940D2940E0DC
:1026000050E0BA0188E190E00E941F2960E087E174
:1026100090E00E940D2940E050E0BA018CE190E08A
:102620000E941F2960E070E080E290E00E942B2968
:1026300040E050E0BA0188E190E00E941F290C942C
:102640006F050C94C212682F8EE090E00C940D2957
:102650000E946C2060934302709344028093450271
:102660009093460260933F02709340028093410230
:1026700090934202089585B7806885BF85B78068CA
:1026800085BF089581E008950C94421308950C9439
:1026900046130C9446130C9449130C9446130C9453
:1026A0004D130C9446130E943B1389E096E10E945F
:1026B000DF200E9451130C944F130E9447130C9477
:1026C00046130E9457200E943E160C944B139F9273
:1026D000AF92BF92CF92DF92EF92FF920F931F9330
:1026E000CF93DF93CDB7DEB72A970FB6F894DEBF4E
:1026F0000FBECDBF0E944F1681110E94281381E3A7
:10270000A82E82E0B82E00E010E0902E802F0E94CC
:102710003016D82EF501C1905F01C826B1F40F5FC5
:102720001F4F0E30110589F78FEF89838A831B8233
:102730000E9460208160782F9D838C8349815A811B
:102740006B818D810E9478072FC08091470281FDA7
:102750000E943616E12CFF24F3948C2D8F21F1F08A
:102760000E944413882399F0EE829F82DF2081E04B
:1027700009F480E088870E9460208160782F9A8722
:1027800089874E815F8168858A850E947807F80174
:10279000EF5CFD4F8081F826F08206C0E394FF0CC9
:1027A000F6E0EF12DACFBBCF0E94D0190E94B91E1B
:1027B000909130028917B9F00E94B91E80933002BF
:1027C0002A960FB6F894DEBF0FBECDBFDF91CF9132
:1027D0001F910F91FF90EF90DF90CF90BF90AF903F
:1027E0009F900C942E072A960FB6F894DEBF0FBE6A
:1027F000CDBFDF91CF911F910F91FF90EF90DF90B0
:10280000CF90BF90AF909F900895CF93DF930E9499
:102810003215EC01811522E5920708F04AC08115B6
:1028200031E5930708F0C2C0883E910528F5803E47
:10283000910508F0FBC0883A910570F4853A91053E
:1028400008F089C08130910509F482C008F4EBC01A
:10285000049708F0EBC0E7C08F3B910508F0E3C098
:10286000C85AD0E0CC0FDD1FC45BDE4F0990D88181
:10287000C02DCE019464DBC0811540E2940758F46A
:10288000811551E0950708F0D1C08D3E910508F4FF
:10289000CAC09065CCC0C11580E4D80708F4C3C095
:1028A000C11520E5D20708F060C0DF70CE01906A44
:1028B000BEC0811536E5930728F5811545E59407D7
:1028C00008F091C0811554E5950708F086C0AC0169
:1028D00043705527282F26952695C115D34508F016
:1028E0006BC081E090E002C0880F991F4A95E2F723
:1028F00040E2249F90011124EC01C22BD32BCE0186
:102900009C6895C0811529E5920768F4811538E522
:10291000930708F071C08115974508F084C0DD2742
:10292000CE01906684C081155AE5950708F46AC007
:1029300090568115904208F076C08D2F8F710E94BD
:10294000C615DD27D0628F71AE01582BCA016FC04A
:1029500081E090E06CC0C55AD0E0C658DE4F888157
:10296000C82FD0E0CE01906462C0CE0174E096958D
:1029700087957A95E1F7282F23703C2F337081E0FB
:1029800090E002C0880F991F3A95E2F79C68AC016D
:10299000522B9A019C2F9F709695969550E2959F89
:1029A000E0011124C9018C2B9D2B41C0D82FCC27CD
:1029B000CE01816F906A3BC081E090E002C0880F39
:1029C000991F4A95E2F750E2259F90011124EC01EE
:1029D000C22BD32BCE019A682AC0D82FCC27CE0188
:1029E000846F906A24C00E94C6158F7190E0D82F22
:1029F000CC27CE0190621BC0D82FCC27CE01806F90
:102A0000906A15C08F700E94C61594E0D695C79540
:102A10009A95E1F7CF70D0E0DC2FCC27D0699E01EA
:102A2000282BC90104C080E090E001C0CE01DF91F5
:102A3000CF91089524E5829FC0011124FC0126E076
:102A4000729FE00DF11D1124E60FF11DEE0FFF1F27
:102A5000EA5CFD4F8591949108950E941A150E9499
:102A6000051408958238910569F1B0F48133910518
:102A700009F46DC048F48932910509F463C08A32C3
:102A8000910509F469C008958533910509F455C08D
:102A900089339105B9F00895833E910569F138F4C1
:102AA000803E9105B1F0823E910509F10895863E80
:102AB0009105A9F1873E9105B9F1843E910509F090
:102AC00064C023C02091950220FD4FC021FD4DC060
:102AD00008958091950280FD44C08091960280FF08
:102AE00044C08091950284FD42C083EE4DC0809128
:102AF000950282FF38C0F5CF8091950282FD33C0E8
:102B00008091960280FD31C0ECCF8091960281FFCA
:102B100032C08091950284FD2AC087EE35C0809135
:102B2000950283FF26C0F5CF8091950283FD21C0D9
:102B30008091960281FD1FC0ECCF8091950285FDAA
:102B40001CC01DC08091950285FD19C016C08091E2
:102B5000950286FD16C017C08091950286FD13C0B0
:102B600010C089E311C082EE0FC080EE0DC080E07E
:102B70000BC086EE09C084EE07C089E205C085E37C
:102B800003C08AE201C081E390E00895909195022C
:102B900092FF0DC0282F2871283019F4877F846098
:102BA00006C0282F2471243011F48B7F886093FF96
:102BB0000DC0282F2871283119F4877E846106C042
:102BC000282F2471243111F48B7E88612091960284
:102BD00020FF0DC0382F3871383019F4877F81609D
:102BE00006C0382F3171313011F48E7F886021FF9B
:102BF0000DC0282F2871283119F4877E816106C005
:102C0000282F2171213111F48E7E886194FD877EF9
:102C1000089580E0089508950E947C12811102C0F9
:102C20000E9421130E948712809347020E948F12F4
:102C300090939602809395020E940B160E948B122D
:102C4000682F70E080E090E00E94970C6091CA01CC
:102C50007091CB018091CC019091CD010C94CF0C5F
:102C6000E82FF0E0EB55FD4F808108950895089519
:102C70000C9437160C9438160C9437160E94FA03ED
:102C8000E7E9F2E0A5EAB2E011921D9282E0E53AAE
:102C9000F807D1F78EE00E9462160C944306CF939A
:102CA00087E992E00E940504C82F282F4EE065EACC
:102CB00072E087E992E00E9475160E944B068C2F05
:102CC000CF910895CF93C82F90E00E94D82780938A
:102CD0004B0290934C02282FFC018E2F821B8C17E5
:102CE00010F41192FACFCF910895DF92EF92FF92F4
:102CF0000F931F93CF93DF93082FF92EE62ED72E35
:102D0000142FD22FC0914802CC23C9F10E94602019
:102D10002091490230914A02AC01421B530B9A01A7
:102D200090934A02809349024F3F510509F020F4E5
:102D3000452B09F454C002C02FEF30E01092480236
:102D400010924D0240914B02E42FF0914C0290E022
:102D500030E08E2F841B811768F48081882341F036
:102D6000281718F010829C2F03C0821B80833C2FF1
:102D70003196EFCF3093480290934D0230C022231A
:102D800031F10E94602090934A0280934902909111
:102D90004B0280914802AE2DBD2DC02FDF2DE92FB3
:102DA000F0914C023EE12E2F291B211768F4299146
:102DB0004C91421731F04081411103C030832C9374
:102DC00081E031961196EFCF809348020CC080E0ED
:102DD00090914D02992339F08111D9CFD2CFD111E1
:102DE000D6CF81E0F5CFDF91CF911F910F91FF906A
:102DF000EF90DF9008950E94DA1F0E9455220E94F2
:102E00006E220E9480220E945D13FBCF893279F1ED
:102E1000E0F4843161F1A0F4873009F075C01092BC
:102E2000530294E190930F0180930E018CE3809301
:102E30000D0188E080930B0188E280930A0164C051
:102E400092EE980F9A30F0F05FC0803509F444C0DC
:102E500028F48F3409F058C08AE03FC0813529F04A
:102E6000823509F051C081E038C08FEF36C08091C3
:102E70005002882379F11092500210924F02109262
:102E80004E0242C08D5180935002833099F038F445
:102E9000813069F08230D9F48FE091E00DC0853047
:102EA00099F078F0863099F48AE091E005C083E5E6
:102EB00092E002C08EE091E090934F0280934E0228
:102EC00023C08DE091E0F8CF8BE091E0F5CF109238
:102ED00050021AC080E0089586EFE0914E02F09112
:102EE0004F02309789F02081082E000C990B820F39
:102EF000911D8F3F910519F014F08FEF04C097FFDB
:102F000002C0108201C0808381E008950F931F9357
:102F100041E050E060E070E08A019B0104C0000FD6
:102F2000111F221F331F8A95D2F7C901B8010E94D1
:102F3000970C1F910F910C94360C482F50E0FA011A
:102F40003597EF33F10508F060C0E258FF4F0C945D
:102F5000D2270E94211355C080914702817F8E7F26
:102F60008093470281E08093510208950E944E06AB
:102F700048C080914702982F9095917090FB80F9FE
:102F80008093470291113DC0897F877F10C0809157
:102F9000470281FB222720F991E0922790FB81F9DB
:102FA00080934702992369F1809147028160809361
:102FB000470227C08091470282FB222720F991E037
:102FC000922790FB82F9ECCF8091470283FB222766
:102FD00020F991E0922790FB83F9E2CF0E94360C12
:102FE0008091950287FB222720F991E0922790FBA0
:102FF00087F98093950205C0895301C08D510E94C5
:10300000861781E0089580E0FACF80E0089580E09F
:1030100008950C940718CF93C82F809151028130E6
:1030200091F040F0823009F041C08C2F0E940617C9
:1030300081E042C00E94C711813149F00E94C7114E
:103040008232B1F504C00E94C711813149F48C2F3E
:103050000E940918811109C08C2F0E949D1724C05D
:103060000E94C711823221F4F2CF81E090E01CC0AF
:103070008C2F0E940718811116C0C43189F058F4B2
:10308000CB3089F0C031B1F482E08093510288E303
:103090000E94061708C0C93219F0C83321F00AC0CF
:1030A0001092510207C081E0817006C01092510257
:1030B00080E002C080E0F8CFCF91089580915A025D
:1030C00080FF0BC060910E0185E0689FB001112464
:1030D00075956795759567952BC081FF09C06091BF
:1030E0000E0185E0689FB00111247595679520C099
:1030F00082FF07C060910E0185E0689FB001112436
:1031000017C0909159029923D1F060910D01961743
:1031100088F720910E0185E0289F90011124929F4D
:10312000A001939F500D112470E0CA010E94BE2798
:103130006038710540F46115710519F406C065E049
:1031400070E0862F08958FE7089581E008958091BB
:103150005A0280FF08C060910B0170E07595679579
:103160007595679521C081FF06C060910B0170E0E5
:103170007595679519C082FF04C060910B0170E0DE
:1031800010C090915802992399F060910A01961706
:10319000A0F780910B01899FC001112470E00E946B
:1031A000BE276038710540F46115710519F406C039
:1031B00061E070E0862F08958FE7089581E008951B
:1031C0008D3E21F40E945E18819504C08E3E29F444
:1031D0000E945E1880935E0208958F3E21F40E9443
:1031E0005E18819504C0803F29F40E945E18809388
:1031F0005D020895893F19F40E94A71805C08A3F0F
:1032000031F40E94A718819580935F0208958B3F47
:1032100021F40E94A718819504C08C3F29F40E94D4
:10322000A7188093600208959FE0980F983078F473
:1032300021E030E0A90102C0440F551F9A95E2F742
:10324000CA0190915C02892B80935C0208958D3FA6
:1032500021F480915A0281600BC08E3F21F480914D
:103260005A02826005C08F3F29F480915A0284601F
:1032700080935A0208958D3E39F490915E0297FF33
:1032800035C010925E0259C08E3E29F490915E02C4
:103290001916BCF32BC090915D028F3E29F497FF65
:1032A00025C010925D0249C0803F19F41916CCF375
:1032B0001DC090915F02893F29F41916BCF4109249
:1032C0005F023BC08A3F19F497FF10C0F8CF8B3FD5
:1032D00039F49091600297FF09C0109260022DC0EE
:1032E0008C3F21F4909160021916BCF39FE0980F77
:1032F000983080F421E030E0A90102C0440F551F4E
:103300009A95E2F7CA01809590915C028923809397
:103310005C0213C08D3F21F480915A028E7F0BC056
:103320008E3F21F480915A028D7F05C08F3F29F492
:1033300080915A028B7F80935A0280915D028111A5
:1033400006C080915E02811102C0109259028091E4
:103350005F02811106C080916002811102C010924B
:10336000580208950E94602020915D02211104C03E
:1033700020915E02222321F09093570280935602FF
:1033800020915F02211104C020916002222321F0CC
:1033900090935502809354028BE592E00C94E21EC8
:1033A000EF92FF920F931F93CF93DF9300D000D043
:1033B00000D0CDB7DEB786E0EBE5F2E0DE01119696
:1033C00001900D928A95E1F7E0905D02F0905E0227
:1033D00000915F021091600210925D0210925E02F5
:1033E00010925F0210926002E11003C0FF2009F406
:1033F0005DC080915602909157020E947820AC01E6
:1034000090915902992339F020910F0130E024174F
:10341000350758F04BC0209153028AE0289F900155
:1034200011242417350718F041C09F3F19F09F5F02
:1034300090935902EE2061F00E945E181E1414F061
:103440009FEF01C091E0989F902D112490935D0211
:10345000FF2061F00E945E181F1414F09FEF01C05E
:1034600091E0989F902D112490935E0230915D021F
:103470003323E1F020915E022223C1F045EB3403B7
:10348000C0011124992319F090935D0203C081E0DB
:1034900080935D0235EB2303C0011124992319F0B9
:1034A00090935E0203C081E080935E02011103C02D
:1034B000112309F45DC080915402909155020E943D
:1034C0007820AC0190915802992339F020910C0199
:1034D00030E02417350758F04BC0209152028AE0A3
:1034E000289F900111242417350718F041C09F3FF1
:1034F00019F09F5F90935802002361F00E94A71873
:10350000101614F09FEF01C091E0989F902D1124A8
:1035100090935F02112361F00E94A718111614F016
:103520009FEF01C091E0989F902D1124909360022D
:1035300030915F023323E1F0209160022223C1F039
:1035400045EB3403C0011124992319F090935F02D5
:1035500003C081E080935F0235EB2303C001112497
:10356000992319F09093600203C081E08093600278
:1035700080915D0281110BC080915E02811107C0B4
:1035800080915F02811103C08091600281110E94CD
:10359000B219EB82FC820D831E8386E0FE01319618
:1035A000ABE5B2E001900D928A95E1F726960FB651
:1035B000F894DEBF0FBECDBFDF91CF911F910F9169
:1035C000FF90EF900895EBE5F2E086E0DF011D92B9
:1035D0008A95E9F7109259021092580210925A02F5
:1035E0000895CF93DF9397FF0DC0FB012281222323
:1035F00049F0EC010E941C1BCE019F770E94731BB7
:103600000E94551B81E0DF91CF9108958CE090E0FE
:103610000E94F92890E0A0E0B0E08093B30290937C
:10362000B402A093B502B093B60208956091B302BC
:103630008CE090E00C940D290E94C51E8695817047
:103640008093B8029091B302913029F4882319F045
:1036500089E30E9419090E94C7118093B7020E9452
:10366000DA118091B302813071F048F0823081F03C
:103670008430A1F486EE0E94190988E10DC082EE23
:103680000E94EB070BC088E193E00E94E70506C0AB
:1036900082EE0E94EB0787E50E9419098FE39CE9FF
:1036A0000197F1F700C0000008958091B3028130C6
:1036B00039F078F0823069F0843089F488E20DC006
:1036C0008CE20E9419098091B802882341F089E3B5
:1036D00004C082EE0E949A0802C00E9419098091DB
:1036E000B7020C94D7110F931F93CF93DF938C01E4
:1036F000CCE0D0E0C8010C2E02C0969587950A94C4
:10370000E2F78F700E941C072497CC3F8FEFD807F9
:1037100089F7DF91CF911F910F9108950F931F9318
:10372000CF93DF93EC018B01FB018281882361F051
:103730000E94C711CE01825E9C458530910520F420
:103740008093B3020E94161BB801CE01DF91CF9186
:103750001F910F910C94F11A0F931F93CF93DF9346
:10376000C42FD22FFC0182818823C9F040936302C9
:103770000E946020909362028093610280E28C0F2D
:10378000883008F057C0C77081E001C0880FCA9523
:10379000EAF7DF91CF911F910F910C94220980914C
:1037A0006302481330C080916102909162020E94CE
:1037B0007820883C910538F510E21D0FCD17B9F03F
:1037C00080E28C0F883040F4C77081E001C0880F20
:1037D000CA95EAF70E942909183028F581E09D2F43
:1037E000977001C0880F9A95EAF70E942209802FEE
:1037F0000E9419091830F0F4D77081E001C0880FD9
:10380000DA95EAF70AC080E28C0F883098F4C77026
:1038100081E001C0880FCA95EAF7DF91CF911F912F
:103820000F910C942909802FDF91CF911F910F9157
:103830000C941909DF91CF911F910F9108950F9367
:103840009C01CB01243F4CE5340731F188F4293D3C
:10385000FCE53F07D9F02A3D4CE5340779F1283DD6
:103860003C45A9F506E221EE41EE68ED7CE52BC072
:10387000263FFCE53F07E1F0A8F0273F3C4539F53E
:1038800007E225EE46EE67EF7CE51DC007E225EE78
:1038900045EE69ED7CE517C006E221EE40EE64EFEF
:1038A0007CE511C007E225EE44EE65EF7CE50BC038
:1038B00006E221EE42EE66EF7CE505C008E221E07B
:1038C00045EE6AED7CE50E94AC1B80E008C0FC017F
:1038D0008281882319F01092630201C081E00F9168
:1038E0000895CF93DF93EC01FB018281882309F4D3
:1038F00026C1C430FDE5DF0760F4CB3F9CE5D90766
:1039000068F49E0122503C452431310508F018C16D
:1039100005C0C236EDE5DE0709F012C10E948F1224
:103920009093960280939502C031FCE5DF0709F47D
:10393000CAC008F041C0C8309CE5D90709F4A4C04A
:10394000F0F4C430FCE5DF0709F48CC068F4C23041
:103950009CE5D90709F482C0C330DC4509F0E5C015
:10396000809195028260DFC0C630FCE5DF0709F474
:1039700083C008F085C0809195028860D4C0CC30A7
:103980009CE5D90709F490C068F4CA30FCE5DF076C
:1039900009F47EC008F084C00E94360C8091950224
:1039A0008068C1C0CE309CE5D90709F481C008F019
:1039B00086C08091950294C0CD3FFCE5DF0709F4F5
:1039C0007BC038F5C4319CE5D90709F49AC058F496
:1039D000C231FCE5DF0709F47AC008F07EC08091AF
:1039E00095028F7BA0C0CB3F9CE5D907F1F108F091
:1039F0003FC0C531DC4509F098C08091950282FB3B
:103A0000222720F991E0922790FB82F990FB83F91D
:103A10008AC0C1308DE5D80709F467C050F48091A1
:103A20009602CF3FECE5DE07C1F108F05BC08D7F69
:103A300065C0C3308DE5D80709F471C008F46DC0C6
:103A4000C236DD4509F071C08091950284FB2227C2
:103A500020F991E0922790FB84F965C0809195024E
:103A6000816061C08091950216C08091960216C057
:103A700080919602826042C080919502806153C01D
:103A80008091950280624FC08091950280644BC006
:103A9000809195028860846046C0826081602EC0FB
:103AA000809195028E7F3FC0809195028D7F3BC0B3
:103AB00080919502877F37C08091960214C08091D3
:103AC00095028F7E30C0809195028F7D2CC00E9420
:103AD000360C809195028F7726C080919502877F62
:103AE0008B7F21C08D7F8E7F09C080919602982F99
:103AF000909591708E7F892B90FB81F9809396022F
:103B000014C00E94360C8091950287FB222720F971
:103B100091E0922790FB87F906C081E001C080E028
:103B20000E94231302C08093950280919502909188
:103B300096020E94A0120E94360C80E001C081E033
:103B4000DF91CF910895CF93DF9386319C4541F566
:103B5000EB010E94C711982F8A81209108013091B2
:103B60000901882379F09A7A81E009F480E0809352
:103B70006402911102C069E201C065E3C9010E94BB
:103B8000B21F0AC080916402811102C069E201C0C3
:103B900065E3C9010E94BD1F0E940F1280E001C0B1
:103BA00081E0DF91CF9108951092B9008CE080936D
:103BB000B80008959F92AF92BF92CF92DF92EF929A
:103BC000FF920F931F93CF93DF93B82EEB010E94C8
:103BD00060206C01C431D10558F0CF3F8FEFD8077A
:103BE00059F0CE0164E170E00E94AA277B0107C072
:103BF000EE24E394F12C03C025E0E22EF12C84E8BE
:103C0000A82E94EA992E1092BC009092BC000E94BB
:103C100060208C018091BC0087FD08C00E9460205C
:103C2000801B910B8E159F05A8F32AC08091B900C7
:103C3000887F883041F08091B900887F803119F009
:103C40000FEF1FEF1FC0B092BB00A092BC000E94FC
:103C500060208C018091BC0087FD08C00E9460201C
:103C6000801B910B8E159F05A8F30AC08091B900A7
:103C7000887F883111F0803419F700E010E00EC021
:103C80000EEF1FEFCF3F8FEFD80709F4BCCFC6016F
:103C90000E9478208C179D0708F4B5CFC801DF91EA
:103CA000CF911F910F91FF90EF90DF90CF90BF9039
:103CB000AF909F9008950F931F93CF93DF93EB01E5
:103CC0008093BB0084E88093BC000E9460208C013C
:103CD0008091BC0087FD0EC0CF3F8FEFD807C1F3A6
:103CE0000E946020801B910B8C179D0788F38EEF3C
:103CF0009FEF0CC02091B900287F81E090E028322E
:103D000011F480E090E0919581959109DF91CF9138
:103D10001F910F9108950F931F93CF93DF93EC01A1
:103D200084E88093BC000E9460208C018091BC00DC
:103D300087FD0EC0CF3F8FEFD807C1F30E946020F0
:103D4000801B910B8C179D0788F38EEF9FEF03C0AC
:103D50008091BB0090E0DF91CF911F910F9108956A
:103D600084E98093BC00089590936A02809369026D
:103D70000895E0916902F0916A02309721F0019074
:103D8000F081E02D099480E008950E94B91E089505
:103D9000E0916902F0916A02309799F020911A013E
:103DA000222359F02091950227FF07C0DC012C91B6
:103DB00011962C93119725E02C930280F381E02D2E
:103DC00009940895E0916902F0916A02309739F000
:103DD00022E0DC012C930480F581E02D0994089504
:103DE00020916702309168022817390771F090938B
:103DF000680280936702E0916902F0916A0230974D
:103E000021F00680F781E02D099408952091650244
:103E1000309166022817390771F0909366028093FB
:103E20006502E0916902F0916A02309721F0008406
:103E3000F185E02D09940895FC01329680911A01D4
:103E4000882331F08091950287FF02C09EE101C076
:103E500096E080E0915028F021912223D9F38F5FE2
:103E6000F9CF0895662351F120911A012223E9F038
:103E70002091950227FF19C0462F469546954695F5
:103E80004E31E0F4677021E030E002C0220F331FB2
:103E90006A95E2F7FC01E40FF11D828190E028238E
:103EA000392381E0232B69F409C0FC01329608967E
:103EB0002191621729F0E817F907D1F780E00895FA
:103EC00081E008959C01FC0132969FEF80E04191D2
:103ED000461789F09F3F19F4411101C0982F8F5F59
:103EE0008630A9F79F3F39F0F901E90FF11D97FDE1
:103EF000FA956283089508959C012A5F3F4FFC0163
:103F00004281461301C01282019682179307B9F7C6
:103F10000895262F2695269526952E3168F4FC01C6
:103F2000E20FF11D677021E030E001C0220F6A95B9
:103F3000EAF78281282B22830895262F269526953D
:103F400026952E3170F4FC01E20FF11D677021E01F
:103F500030E001C0220F6A95EAF72095828128237C
:103F60002283089520911A01222329F0209195029D
:103F700027FD0C94891F0C94621F20911A012223A3
:103F800029F02091950227FD0C949D1F0C947C1F15
:103F900020911A01FC013296222331F08091950282
:103FA00087FF02C08EE101C086E0DF011D928A9585
:103FB000E9F70895089508950C94DB1FCF930E94AC
:103FC00057040E944F160E94DC1FC0E08C2F0E94F5
:103FD0003016811104C0CF5FCE30C1F701C081E03F
:103FE000CF9108950C94DB1F0C94F21F8091C102B5
:103FF000843049F10E94F41F80E00E942E07109245
:104000006B0220E488E190E00FB6F894A8958093C5
:1040100060000FBE2093600083B7817F846083BF00
:1040200083B7816083BF7894889583B78E7F83BF81
:104030000FB6F894A8958091600088618093600025
:10404000109260000FBE08950C94DB1F0E94360C86
:104050000E94B91E0E942E070C9424201F920F92DA
:104060000FB60F9211248F939F93AF93BF938091BC
:104070006B02811113C08091B9029091BA02A09194
:10408000BB02B091BC024196A11DB11D8093B90243
:104090009093BA02A093BB02B093BC02BF91AF91C0
:1040A0009F918F910F900FBE0F901F90189582E0F7
:1040B00084BD93E095BD9AEF97BD80936E000895FF
:1040C0002FB7F8948091B9029091BA02A091BB02E7
:1040D000B091BC022FBF08952FB7F8946091B90238
:1040E0007091BA028091BB029091BC022FBF0895DB
:1040F0009C014FB7F8948091B9029091BA02A091B7
:10410000BB02B091BC024FBF821B930B0895789401
:104110001F920F920FB60F9211248F939F93AF931C
:10412000BF938091B9029091BA02A091BB02B09165
:10413000BC020196A11DB11D8093B9029093BA02F1
:10414000A093BB02B093BC02BF91AF919F918F919E
:104150000F900FBE0F901F901895F89481E08093F8
:10416000E00080E28093D800E9ECF0E010828FE17B
:104170009EE40197F1F700C000001DBA109268009C
:104180001CBC10BE1FBA10927A0010926E001092E2
:104190006F0010927100109272001082ECEBF0E050
:1041A000108214B817B81AB81DB810BA108215B812
:1041B00018B81BB81EB811BA0C94003F089590931C
:1041C0007F0180937E01089580918F0208959091E0
:1041D000C102943031F580936C0270936E0260934B
:1041E0006D0282E08093E9008FEF9091E8008150AA
:1041F00095FD06C095ED9A95F1F700008111F5CF78
:104200008091E80085FF0DC040E050E063E070E081
:104210008CE692E00E940C238091E8008E778093D8
:10422000E8000895BC0184E00C94E720BC0183E021
:104230000C94E72022E02093E9002FEF3091E80072
:10424000215035FD06C035ED3A95F1F700002111FA
:10425000F5CF2091E80025FF0BC040E050E066E07C
:1042600070E00E940C238091E8008E778093E80034
:104270000895CF93DF9320911A01222339F02091E2
:10428000950227FF03C060E222E002C068E021E05F
:104290002093E9002FEF3091E800215035FD06C052
:1042A00035ED3A95F1F700002111F5CF2091E800A6
:1042B00025FF1DC0EC0180911A01811105C040E06D
:1042C00050E068E070E003C070E040E050E0CE01F4
:1042D0000E940C238091E8008E778093E80080E2B2
:1042E000FE01AFE6B2E001900D928A95E1F7DF9111
:1042F000CF9108958091C002811109C00E949D2430
:104300000E94FA248091E20084608093E200089584
:104310001092C002089508950895089542E061EC56
:1043200081E00E94162442E261EC82E00C941624A3
:104330008091C302833009F460C030F4813071F0A1
:10434000823009F499C008958A3009F485C08B3011
:1043500009F46BC0893009F0A7C020C08091C20267
:10436000813A09F0A1C08091E800877F8093E8003E
:104370008091C6029091C702892B21F460E28FE6FA
:1043800092E003C060E080E090E070E00E9457237C
:104390008091E8008B778093E80008958091C202B5
:1043A000813209F081C08091C6029091C7020297C4
:1043B00008F07AC08091E800877F8093E8008091C0
:1043C000E80082FD05C08091C1028111F8CF6CC068
:1043D0002091F3008091F20090E0922B029729F453
:1043E0008091F1008B7F813021F48091F1008093E6
:1043F0008F028091E8008B7753C08091C202813A8E
:1044000009F052C08091C6029091C702892B09F031
:104410004BC08091E800877F8093E8008091E8009E
:1044200080FFFCCF80911A0136C08091C202813298
:10443000D9F58091C6029091C702892BA9F5809188
:10444000E800877F8093E8000E944B248091C4029B
:1044500080931A010C94360C8091C202813221F5AE
:104460008091E800877F8093E8000E944B24809130
:10447000C5028093900208958091C202813AA1F40E
:104480008091E800877F8093E8008091E80080FFBA
:10449000FCCF809190028093F1008091E8008E77AC
:1044A0008093E8000C944B24089584B7877F84BFE1
:1044B0000FB6F894A89580916000886180936000A1
:1044C000109260000FBE90E080E80FB6F8948093E1
:1044D0006100909361000FBE0C9453130E949D24C1
:1044E0000E94FA24E2EEF0E0808184608083789478
:1044F0000E948F270E94611380E191E00C94B41E0A
:104500008091C1028530A9F48091C102853079F48F
:104510000E94F61F8091BF028823B1F30E94DE1F24
:10452000882391F30E94F6220E94360CEDCF0E9460
:1045300026200C9467130C949D22292F33272330B7
:104540003105C9F060F42130310581F022303105A8
:1045500009F044C08BE390E024E235E043C021320F
:104560003105E1F02232310549F138C082E190E0B5
:104570002FE535E037C099278130910549F028F0C3
:10458000029761F5EEEDF4E005C0E0E2F5E002C06F
:10459000E6EFF4E0849190E09F0124C0611571057D
:1045A00041F061307105D1F489E090E02FE435E00D
:1045B00019C089E090E026E335E014C0611571056B
:1045C00041F06130710551F486EB90E021E735E070
:1045D00009C080E490E027E236E004C080E090E08B
:1045E00020E030E0FA0131832083089580E189BD25
:1045F00082E189BD09B400FEFDCF8091D8008F7D96
:104600008093D8008091E00082608093E0008091E8
:10461000E00081FDFCCF0895CF92DF92EF92FF92F0
:104620000F931F93CF93DF93EC018B017A010E94CC
:104630006A24811133C0E114F10439F0F70180815B
:104640009181081B190BC80FD91FC12CD12C011542
:10465000110519F18091E80085FD16C08091E800F0
:104660008E778093E800E114F10449F0F70180812E
:104670009181C80ED91ED182C08285E00FC00E94F0
:104680006A24882321F30AC089918093F1000150A4
:104690001109FFEFCF1ADF0ADACF80E0DF91CF9167
:1046A0001F910F91FF90EF90DF90CF900895209190
:1046B000C8023091C9022617370748F06115710505
:1046C00039F42091E8002E772093E80001C0B90169
:1046D000FC0120E06115710579F18091C102882308
:1046E000F1F18530F1F18091E80083FD3CC08091CB
:1046F000E80082FD2EC08091E80080FFEBCF209182
:10470000F3008091F20090E0922B6115710551F059
:104710008830910538F421912093F100615071099E
:104720000196F3CF21E0089709F020E08091E8009E
:104730008E778093E800CECF2111CFCF0AC0809131
:10474000C102882361F0853061F08091E80083FD2B
:104750000AC08091E80082FFF2CF80E0089582E0F5
:10476000089583E0089581E008952091C802309172
:10477000C9022617370748F06115710539F42091F1
:10478000E8002E772093E80001C0B901FC0120E089
:104790006115710591F18091C102882309F440C02F
:1047A000853009F43FC08091E80083FD3DC08091D1
:1047B000E80082FD2FC08091E80080FFE9CF2091C2
:1047C000F3008091F20090E0922B6115710559F091
:1047D0008830910540F424912093F1003196615086
:1047E00071090196F2CF21E0089709F020E080914D
:1047F000E8008E778093E800CBCF2111CCCF0AC0A0
:104800008091C102882361F0853061F08091E800D9
:1048100083FD0AC08091E80082FFF2CF80E0089516
:1048200082E0089583E0089581E00895982F9730FD
:1048300068F59093E900981739F07091EC00209199
:10484000ED005091F00003C0242F762F50E021FDA1
:1048500002C09F5FECCF3091EB003E7F3093EB00C6
:104860003091ED003D7F3093ED003091EB003160F1
:104870003093EB007093EC002093ED005093F00028
:104880002091EE0027FDE5CF80E008958F708093A2
:10489000E90081E008958091C20287FF11C08091F4
:1048A000E80082FD05C08091C1028111F8CF11C0DE
:1048B0008091E8008B770BC08091C102882349F07A
:1048C0008091E80080FFF8CF8091E8008E77809398
:1048D000E80008952091E4003091E50095E64091CC
:1048E000EC00842F817040FF23C08091E80080FDA0
:1048F0001DC08091C102882399F0853099F0809184
:10490000EB0085FD11C04091E4005091E5002417B3
:10491000350729F3915011F09A01E1CF84E0089511
:1049200082E0089583E0089581E0089580E008958D
:104930004091E80042FFDDCF08950E940B250E94C0
:104940001325E0EEF0E0808181608083E8EDF0E007
:1049500080818F77808319BCA7EDB0E08C918E7F2A
:104960008C9380818F7E80831092C00208950F9374
:104970001F93CF93DF930E940B250E941325C8ED50
:10498000D0E088818F778883888180688883888158
:104990008F7D888319BC1092C1021092BD021092C3
:1049A000BF021092BE0200EE10E0F80180818B7F02
:1049B000808388818160888342E060E080E00E949B
:1049C0001624E1EEF0E080818E7F8083E2EEF0E05D
:1049D000808181608083808188608083F80180810C
:1049E0008E7F8083888180618883DF91CF911F9142
:1049F0000F910895E8EDF0E080818F7E8083E7EDF0
:104A0000F0E080818160808384E082BF81E08093D8
:104A1000C0020C94B724E8EDF0E080818E7F8083A3
:104A20001092E20008951092DA001092E1000895C9
:104A30001F920F920FB60F9211242F933F934F9313
:104A40005F936F937F938F939F93AF93BF93EF93F6
:104A5000FF938091E10082FF0BC08091E20082FF12
:104A600007C08091E1008B7F8093E1000E948E2738
:104A70008091DA0080FF1FC08091D80080FF1BC0AA
:104A80008091DA008E7F8093DA008091D90080FFD8
:104A90000DC080E189BD82E189BD09B400FEFDCF72
:104AA00081E08093C1020E947A2105C019BC109256
:104AB000C1020E9488218091E10080FF19C080918D
:104AC000E20080FF15C08091E2008E7F8093E200BB
:104AD0008091E20080618093E2008091D800806242
:104AE0008093D80019BC85E08093C1020E948C217C
:104AF0008091E10084FF30C08091E20084FF2CC0EF
:104B000080E189BD82E189BD09B400FEFDCF8091BD
:104B1000D8008F7D8093D8008091E1008F7E8093B4
:104B2000E1008091E2008F7E8093E2008091E200BC
:104B300081608093E2008091BD02882311F084E0BF
:104B400007C08091E30087FD02C081E001C083E0DF
:104B50008093C1020E948D218091E10083FF29C0D2
:104B60008091E20083FF25C08091E100877F8093E0
:104B7000E10082E08093C1021092BD028091E100C9
:104B80008E7F8093E1008091E2008E7F8093E2002F
:104B90008091E20080618093E20042E060E080E08A
:104BA0000E9416248091F00088608093F0000E949B
:104BB0008B21FF91EF91BF91AF919F918F917F9149
:104BC0006F915F914F913F912F910F900FBE0F907A
:104BD0001F9018951F920F920FB60F9211242F93CA
:104BE0003F934F935F936F937F938F939F93AF9375
:104BF000BF93CF93DF93EF93FF93C091E900CF7002
:104C00008091EC00D82FD17080FDD0E81092E9009F
:104C10008091F000877F8093F00078940E942E2688
:104C20001092E9008091F00088608093F000CD2B15
:104C3000CF70C093E900FF91EF91DF91CF91BF91C9
:104C4000AF919F918F917F916F915F914F913F9124
:104C50002F910F900FBE0F901F9018951F93CF9319
:104C6000DF93CDB7DEB7AA970FB6F894DEBF0FBEBD
:104C7000CDBFE2ECF2E08091F100819322E0EA3CCA
:104C8000F207C9F70E9498218091E80083FF2EC1A6
:104C90008091C2029091C302492F50E04A305105E1
:104CA00008F024C1FA01E354FF4F0C94D227803856
:104CB00021F0823809F01AC108C08091BE0290919B
:104CC000BF02992389F082600FC08091C6028F7065
:104CD000873008F00BC18093E9008091EB0085FBE1
:104CE000882780F91092E9009091E800977F9093CF
:104CF000E8008093F1001092F100D1C0282F2D7FA1
:104D000009F0F4C0882319F0823061F0EFC080917F
:104D1000C402813009F0EAC0933009F080E080934A
:104D2000BF022EC08091C40281112AC08091C602A8
:104D30008F702FEF280F263008F0D8C08093E9003D
:104D40002091EB0020FF1CC0933021F48091EB00F8
:104D5000806214C09091EB0090619093EB0021E091
:104D600030E0A90102C0440F551F8A95E2F7409335
:104D7000EA001092EA008091EB0088608093EB00DB
:104D80001092E9008091E800877F8093E8000E94FC
:104D90004B24ACC08111AAC01091C4021F7780912E
:104DA000E3008078812B8093E3008091E800877F87
:104DB0008093E8000E944B248091E80080FFFCCFA4
:104DC0008091E30080688093E300111102C082E0CB
:104DD00001C083E08093C10289C08058823008F00E
:104DE00085C08091C4029091C5028C3D53E0950727
:104DF00079F583E08A838AE289834FB7F894DE01EC
:104E0000139620E03EE051E2E32FF0E0509357008C
:104E1000E49120FF03C0E295EF703F5FEF708E2FAB
:104E200090E0EA3010F0C79601C0C0968D939D9334
:104E30002F5F243149F74FBF8091E800877F80932F
:104E4000E8006AE270E0CE0101960E94572316C086
:104E50006091C6027091C702AE014F5F5F4F0E9422
:104E60009B22BC01892B09F441C09091E800977FF7
:104E70009093E80089819A810E94B5238091E8008F
:104E80008B778093E80032C0803881F58091E8000C
:104E9000877F8093E8008091BD028093F10080912C
:104EA000E8008E7772CF811121C08091C402909169
:104EB000C50299270297D4F48091E800877F8093F8
:104EC000E8008091C4028093BD020E944B2480912F
:104ED000BD02811106C08091E30087FD02C081E020
:104EE00001C084E08093C1020E948E218091E8007D
:104EF00083FF0AC08091E800877F8093E80080915B
:104F0000EB0080628093EB00AA960FB6F894DEBFA8
:104F10000FBECDBFDF91CF911F9108950895CF931C
:104F20008091C1028823A1F0C091E900CF709091D7
:104F3000EC00892F817090FD80E8C82B1092E90069
:104F40008091E80083FD0E942E26CF70C093E90077
:104F5000CF910895AA1BBB1B51E107C0AA1FBB1F1D
:104F6000A617B70710F0A61BB70B881F991F5A95F5
:104F7000A9F780959095BC01CD01089597FB072E68
:104F800016F4009407D077FD09D00E94AA2707FCE9
:104F900005D03EF4909581959F4F08957095619549
:104FA0007F4F0895EE0FFF1F0590F491E02D0994B7
:104FB0000F931F93CF93DF938230910510F482E01B
:104FC00090E0E091CC02F091CD0220E030E0A0E052
:104FD000B0E0309719F14081518102811381481767
:104FE0005907C8F08417950769F4109731F01296A5
:104FF0000C93129713961C9327C00093CC02109326
:10500000CD0222C02115310519F04217530718F4BB
:105010009A01BD01EF01DF01F801DBCF2115310558
:10502000F9F0281B390B2430310580F48A819B81EB
:105030006115710521F0FB019383828304C0909375
:10504000CD028093CC02FE01329644C0FE01E20FF5
:10505000F31F8193919322503109398328833AC0F9
:105060002091CA023091CB02232B41F420910201FE
:10507000309103013093CB022093CA0220910001AA
:10508000309101012115310541F42DB73EB7409112
:10509000040150910501241B350BE091CA02F091E7
:1050A000CB02E217F307A0F42E1B3F0B281739079A
:1050B00078F0AC014E5F5F4F2417350748F04E0F74
:1050C0005F1F5093CB024093CA028193919302C019
:1050D000E0E0F0E0CF01DF91CF911F910F910895B3
:1050E000CF93DF93009709F481C0FC0132971382BC
:1050F0001282A091CC02B091CD02109781F4208150
:105100003181820F931F2091CA023091CB02281760
:10511000390751F5F093CB02E093CA0267C0ED0165
:1051200020E030E0CE17DF0740F44A815B819E012A
:1051300041155105F1F0EA01F5CFD383C2834081D7
:105140005181840F951FC817D90759F48881998117
:10515000840F951F0296918380838A819B8193831C
:1051600082832115310529F4F093CD02E093CC021E
:105170003DC0E901FB83EA8349915991C40FD51FD2
:10518000EC17FD0761F480819181840F951F0296D1
:10519000E90199838883828193819B838A83E0E0FC
:1051A000F0E012968D919C911397009719F0FD01F4
:1051B000DC01F7CF8D919C9111979D012E5F3F4FA0
:1051C000820F931F2091CA023091CB022817390712
:1051D00069F4309729F41092CD021092CC0202C0EB
:1051E00013821282B093CB02A093CA02DF91CF91B7
:1051F0000895F999FECF92BD81BDF89A992780B59F
:105200000895A6E1B0E044E050E00C943329A8E111
:10521000B0E042E050E00C943329262FF999FECFFC
:1052200092BD81BDF89A019700B4021639F01FBAF9
:1052300020BD0FB6F894FA9AF99A0FBE0895039616
:10524000272F0E940E290E940D29252F0E940E292A
:10525000242F0C940E290196272F0E940E290C94BE
:105260000D29DC01CB01FC01F999FECF06C0F2BD8E
:10527000E1BDF89A319600B40D9241505040B8F714
:065280000895F894FFCF31
:105286000000CE02200020000D022808643C07140E
:10529600E42039211A211621122101E200E900EA4F
:1052A60000B500B600B700CD008301CC008A01929C
:1052B6000194012102230224022502260227022A42
:1052C60002B300B4006F007000818283E200E9003F
:1052D600EA00B500B600B700CD008301CC008A0114
:1052E60092019401210223022402250226022702AA
:0E52F6002A02B300B4006F00700081828300B2
:00000001FF
